:100000000C94A0020C94E7020C94E7020C94E70213
:100010000C94E7020C94E7020C94E7020C94E702BC
:100020000C94E7020C94E7020C94AB1E0C94671E30
:100030000C945F250C94E7020C94E7020C94E70201
:100040000C94E7020C94E7020C94E7020C94E7028C
:100050000C94E7020C943B250C94E7020C94E70205
:100060000C94E7020C9412260C94EF250C94E702F2
:100070000C94E7020C94E7020C94E7020C94E7025C
:100080000C94E7020C94E7020C94E7020C94E7024C
:100090000C94E7020C94E7020C94E7020C94E7023C
:1000A0000C94E7020C94E7020C94E7020501098026
:1000B000A101850319012AB700150126B700950192
:1000C00075108100C0050C0901A101850419012AE0
:1000D000A002150126A002950175108100C00660DE
:1000E000FF0961A1010962150026FF00952075082E
:1000F00081020963150026FF00952075089102C052
:1001000005010906A101050719E029E715002501E8
:10011000950875018102950175088101050719008F
:1001200029FF150026FF00950675088100050819AE
:10013000012905950575019102950175039101C08D
:10014000000101010101010101010202020202029A
:10015000020202030303030303030304040404046D
:100160000404050505050506060606060707070734
:100170000708080808090909090A0A0A0B0B0B0CE9
:100180000C0C0D0D0D0E0E0E0F0F0F101011111186
:100190001212131314141515161617171818191907
:1001A0001A1A1B1B1C1D1D1E1E1F2020212222236C
:1001B0002424252626272829292A2B2C2D2D2E2FAD
:1001C00030313232333435363738393A3B3C3D3EC4
:1001D0003F404142434445464748494A4C4D4E4FB3
:1001E00050515354555658595A5B5D5E5F61626475
:1001F000656668696B6C6D6F7072737577787A7B02
:100200007D7E8082838587888A8C8E8F9193959658
:10021000989A9C9EA0A2A3A5A7A9ABADAFB1B3B578
:10022000B7BABCBEC0C2C4C6C9CBCDCFD1D4D6D854
:10023000DBDDDFE2E4E7E9EBEEF0F3F5F8FAFDFFF2
:10024000FFAA7F55402223252628292A2C2D2F302E
:1002500032333536383A3B3D3E4042434547494AC2
:100260004C4E5051535557595A5C5E6062646668F3
:10027000696B6D6F71737577797B7D7F81838587FE
:10028000898A8C8E90929496989A9C9E9FA1A3A501
:10029000A7A8AAACAEAFB1B3B4B6B8B9BBBCBEBF29
:1002A000C1C2C3C5C6C7C9CACBCCCDCED0D1D2D2AC
:1002B000D3D4D5D6D7D7D8D9D9DADADBDBDBDCDCB7
:1002C000DCDCDCDDDDDDDDDCDCDCDCDCDBDBDBDA6F
:1002D000DAD9D9D8D7D7D6D5D4D3D2D2D1D0CECDDA
:1002E000CCCBCAC9C7C6C5C3C2C1BFBEBCBBB9B8E7
:1002F000B6B4B3B1AFAEACAAA8A7A5A3A19F9E9C6C
:100300009A98969492908E8C8A89878583817F7D36
:100310007B79777573716F6D6B6968666462605E17
:100320005C5A5957555351504E4C4A4947454342E0
:10033000403E3D3B3A3836353332302F2D2C2A297A
:10034000282625232200003A003B003C00240025FB
:10035000002600540021002200230055001E001F2B
:100360000020005600270037002800570000000139
:100370000001000100010001000100010001000175
:100380000001000100010001000100010001000165
:100390000001000100000001000100010001000156
:1003A0000001000100010001000100010001000145
:1003B0000001000100010001000100010000000136
:1003C0000001000100010001000100010001000125
:1003D0000001000100010001000100010001000115
:1003E000000100010000000000000000000000000B
:1003F00000000000000000000000000000000000FD
:100400000000000000000000007E0F00D4FFFFFF8E
:10041000C70000007800000000000000002A2B2820
:1004200000000000000000000000000000000000CC
:1004300029000000002C1E342021222434262725E8
:100440002E362D3738271E1F202122232425263320
:1004500033362E37381F0405060708090A0B0C0D22
:100460000E0F101112131415161718191A1B1C1D34
:100470002F3130232D350405060708090A0B0C0D12
:100480000E0F101112131415161718191A1B1C1D14
:100490002F3130354C1E0F0500047F3F1F6432148E
:1004A000643214783C1E1E140A0509025B00030125
:1004B00000A0FA0904000001030101000921110153
:1004C00000012240000705810308000A0904010019
:1004D000020300000009211101000122220007058A
:1004E0008203200001070503032000010904020024
:1004F000010300000009211101000122320007055B
:10050000840320000A1201100100000008616E61DE
:10051000600100010200010E035400490044004242
:100520000049005400000012036E0075006C006C5E
:1005300000620069007400730000000403090400F5
:1005400011241FBECFEFDAE0DEBFCDBF04B603FE3D
:1005500027C08091EB039091EC03A091ED03B09143
:10056000EE038730904BA740B04BD1F41092EB03D1
:100570001092EC031092ED031092EE0314BE84B7B8
:10058000877F84BF0FB6F894A8958091600088613A
:1005900080936000109260000FBEE0E0F8E30995E0
:1005A00023E0AAEAB1E001C01D92AB3EB207E1F739
:1005B00011E0A0E0B1E0E2EAFFE402C005900D9294
:1005C000AA3AB107D9F70E94821F0C9498270C947D
:1005D0000000E8EDF0E080818E7F80831092E200E1
:1005E0001092DA001092E100A0EEB0E08C918160F0
:1005F0008C9380818F77808319BCA7EDB0E08C91BC
:100600008E7F8C9380818F7E8083109285020895E7
:100610002091E4003091E50095E6A9012091EC00DD
:10062000822F817020FF06C08091E80080FF06C005
:1006300080E008952091E80022FD1AC08091920286
:10064000882389F0853089F08091EB0085FD0FC00B
:100650002091E4003091E50042175307F9F29150E0
:10066000E1F684E0089582E0089583E0089581E052
:100670000895EF92FF920F931F93CF937C018B010C
:100680000E940803C82F811117C08091E80085FDE2
:100690000BC08091E8008E778093E8000E940803E9
:1006A000882399F3C82F08C0F70181917F018093B7
:1006B000F1000150110949F78C2FCF911F910F9133
:1006C000FF90EF9008958091940287FF13C080916E
:1006D000E80082FF06C08091E8008B778093E800F5
:1006E00004C0809192028111F2CF0895809192020C
:1006F0008823D9F38091E80080FFF8CF8091E8004B
:100700008E77ECCF982F9093E900242F762F50E02E
:10071000891731F07091EC002091ED005091F000BC
:1007200021FD07C09F5F973071F78093E90081E05A
:1007300008953091EB003E7F3093EB003091ED0057
:100740003D7F3093ED003091EB0031603093EB0052
:100750007093EC002093ED005093F0002091EE0098
:1007600027FDE0CF80E00895CF92DF92EF92FF92D5
:100770000F931F93CF93DF93C8EDD0E088818F7ED6
:100780008883E7EDF0E080818160808384E082BF30
:1007900081E08093850288818E7F888302EE10E05D
:1007A000F80110821092DA0081EEC82ED12CF601E9
:1007B000108288818F778883888180688883888188
:1007C0008F7D888319BC109292021092930210922E
:1007D00091021092900290EEE92EF12CF7018081A7
:1007E0008B7F808388818160888342E060E080E045
:1007F0000E948203F60180818E7F8083F8018081D0
:1008000081608083808188608083F70180818E7F12
:100810008083888180618883DF91CF911F910F91C0
:10082000FF90EF90DF90CF900895FC0180919A02A5
:1008300090919B0286179707A0F06115710529F426
:100840009091E8009E779093E80090E06115710523
:1008500051F4911108C08091E80082FF34C080E01B
:100860000895BC01F2CF809192028823C1F18530B6
:10087000C1F18091E80083FD30C08091E80082FDE5
:10088000EACF8091E80080FFE1CF8091F3002091D2
:10089000F200382F6115710519F02830310558F034
:1008A00091E02830310509F090E02091E8002E77A2
:1008B0002093E800CBCF81918093F10061507109C2
:1008C0002F5F3F4FE7CF80919202882341F0853020
:1008D00041F08091E80083FFBECF81E0089582E07F
:1008E000089583E00895089580E008950895809123
:1008F000870208952FB7F89480919C0290919D02F1
:10090000A0919E02B0919F022FBF08959C01FC010F
:1009100032969FEF80E04191461751F09F3F19F4C6
:10092000411101C0982F8F5F8630A9F79F3F09F4CE
:100930000895290F311D97FD3A95F90162830895B5
:1009400080915002811110925002089580914F02BF
:1009500090914E02892B90914D02892B8093AC018E
:1009600090915002992391F0892B8093AC0120E063
:100970008EEA91E0FC013191CF0131112F5FF1E05E
:10098000843B9F07B9F721110E94A004E0915D020A
:10099000F0915E02309731F00280F381E02D8CEA15
:1009A00091E009940895990F990F890F982F9770E6
:1009B00086958695869525E0829FF0011124E35C5B
:1009C000FD4F50E040E080E0219130E0092E02C070
:1009D000369527950A94E2F721703327042E01C03B
:1009E000220F0A94EAF7822B4F5F5F4F4530510583
:1009F00059F70895990F990F890F982F977041E033
:100A000001C0440F9A95EAF786958695869595E0FC
:100A1000899FF0011124E35CFD4F30E020E070E09D
:100A20005191DF011197CB01022E02C09695879557
:100A30000A94E2F7817081958527842385278C931A
:100A40002F5F3F4F2530310559F7089580913C02C3
:100A500090910B02981301C008958F5F8770FACFB1
:100A6000882341F0809590914E02892380934E0215
:100A70000C94A6040895882339F090914E02982B87
:100A800090934E020C94A6040895882341F080951B
:100A900090914F02892380934F020C94A6040895ED
:100AA000882339F090914F02982B90934F020C9429
:100AB000A6040895209102023091030228173907F5
:100AC00071F09093030280930202E0915D02F09135
:100AD0005E02309721F00084F185E02D099408959D
:100AE00020910002309101022817390771F090938C
:100AF000010280930002E0915D02F0915E02309766
:100B000021F00680F781E02D0994089590E080E0BF
:100B10000E94700590E080E00E945A0510924E02FB
:100B200010924D020C94A6046093A3027093A40249
:100B30008093A5029093A6020C9486050F931F93B1
:100B40006091A3027091A4028091A5029091A602E7
:100B50008B019C01067011272227332706301105CF
:100B60002105310529F468601F910F910C949405BB
:100B7000677FFACF0F931F9341E050E060E070E091
:100B800004C0440F551F661F771F8A95D2F7CB010B
:100B9000BA0160957095809590950091A30210918F
:100BA000A4022091A5023091A60260237123822322
:100BB00093231F910F910C94940590914C02809572
:100BC000892380934C02282F277039F4282F082E70
:100BD000000C330B9217130621F49091560292FFEA
:100BE00007C08595859585950E94BA0510924C029F
:100BF00008950F931F9341E050E060E070E004C05F
:100C0000440F551F661F771F8A95D2F78091A30264
:100C10009091A402A091A502B091A6028A019B0125
:100C2000082B192B2A2B3B2BC901B8011F910F91BF
:100C30000C94940560935102709352028093530276
:100C4000909354020C9486058823B1F19CEF980F81
:100C5000913A70F4EEEAF1E09191891303C0DF015B
:100C600011971C9241E0E43BF407B1F70C94A60401
:100C700090E2980F983088F4877021E030E0A90165
:100C800002C0440F551F8A95E2F7CA0180959091E2
:100C90004F02892380934F02E9CF9BE5980F933051
:100CA00020F490E080E00C947005885A873120F49D
:100CB00090E080E00C945A050895CF93C82F8823C4
:100CC00009F44EC08CEF8C0F813AF8F4EEEAF1E0B3
:100CD00084EB91E0DF012D91C21759F08A179B0731
:100CE000D1F76C2F8CEA91E00E948604CF910C948E
:100CF000A6042191C21303C0DF0111971C928E1725
:100D00009F07B9F70E94A604ECCF80E28C0F8830D1
:100D100068F4C77021E030E001C0220FCA95EAF7FD
:100D200080914F02822B80934F02E0CFEBE5EC0FD6
:100D3000E33040F4F0E0E75BFE4F808190E0CF913C
:100D40000C947005C85AC73158F4EC2FF0E0EE0F40
:100D5000FF1FE45BFE4F80819181CF910C945A0577
:100D6000CF910895E0915D02F0915E02309721F0FD
:100D70000190F081E02D099480E00895FA0181113D
:100D800001C0FB01099480917B02982F9E7F29F47A
:100D90008170826080937B0208958635E8F38170CC
:100DA0008465F8CFAF92BF92DF92EF92FF920F93DC
:100DB0001F93CF93DF93082F162FE901E42FF0E064
:100DC000E05CFE4F611110C0E4915E2F4E2F49830D
:100DD000E8835A83DF91CF911F910F91FF90EF909D
:100DE000DF90BF90AF900895E62EF12C4491D42E61
:100DF000E42FF0E026E0829FC00111242FEF30E0C5
:100E0000B9010E946226802F90E0880F991F55E556
:100E1000569FD001579FB00D11248A1B9B0B982F12
:100E2000990F890F5901AE18BF08AE9ED001AF9E31
:100E3000B00DBE9EB00D11245B2F189F80011124B0
:100E4000012F11275901A01AB10AAE9E8001AF9E51
:100E5000100DBE9E100D11245901A81AB108AE9CA8
:100E6000C001AF9C900DBE9C900D1124892F992735
:100E7000281B390B2E9FC0012F9F900D3E9F900D78
:100E80001124E92F62307105A1F050F4611571054C
:100E900009F49DCF6130710581F0EB2F512F97CF71
:100EA0006430710569F080F06630710509F48FCF08
:100EB000F4CFE42F4B2F592F8ACFE42F412F87CF28
:100EC000EB2F542F492F83CF4B2F5D2DE12F7FCF59
:100ED000F894E82FE295EF70F0E031A1282F2F7001
:100EE00081E090E001C0880F2A95EAF7982F90954D
:100EF000932391A392A1892B82A378940895909132
:100F0000550292FF06C0282F28712830F9F4877FF8
:100F1000846093FF06C0282F28712831F1F4877E62
:100F200084612091560220FF06C0382F3871383076
:100F3000D9F4877F816021FF06C0282F28712831CE
:100F4000D1F4877E816194FD877E0895282F2471D6
:100F50002430F9F68B7F8860DCCF282F2471243170
:100F600001F78B7E8861DDCF382F3171313019F771
:100F70008E7F8860E0CF282F2171213121F78E7E6E
:100F80008861E1CF80FF03C0809888980895809A97
:100F9000FCCF9C01832F817031FD8260FB0109949D
:100FA000CF93DF93EC016BE375E00E94C9078C2FB0
:100FB0000E945D068C2F0E94240660E375E0CE013E
:100FC000DF91CF910C94C907CF9384E090E00E9409
:100FD0000F27C82F82E290E00E940F27982F8C2FB6
:100FE000CF9108950F931F93CF93DF9328E0629FD3
:100FF000E001112450E0440F551FC40FD51F38E203
:10100000839FC00DD11D1124CE0187960E940F270A
:10101000082F10E0102F0027CE0188960E940F277E
:101020009801282BC901DF91CF911F910F9108954D
:10103000462F843038F4753028F4643018F4672F64
:101040000C94F20790E080E00895CF93DF930E9424
:101050001808EC0182389105A9F1D8F58133910582
:1010600009F496C048F58932910509F48AC08A9737
:1010700009F495C0C11522E5D20708F0B6C0C11524
:1010800031E5D30708F026C1C83ED10508F09CC061
:10109000C03ED10560F5C83AD10508F087C0C53A11
:1010A000D10508F0EFC0C130D10509F12097F9F062
:1010B000C430D105E0F440C08533910509F45AC02D
:1010C000C997C1F680915502837089F0C0EED0E0D7
:1010D0000EC0833E910599F170F4803E910501F1B7
:1010E000823E910539F68091550282FD21C0CE01E4
:1010F000DF91CF910895863E910561F1873E91057C
:1011000071F1843E910509F0B5CF8091560281FFBF
:10111000EECF80915502C7EED0E084FD0DC0E7CF41
:101120008091550280FD07C19091560290FFDFCF5C
:10113000C3EED0E084FFDBCFD0E0C0E0D8CF809119
:10114000550282FDFBC09091560290FDBFCF84FFF7
:10115000CECFF2CF8091550283FDDDCFC8CF8091F5
:10116000550283FDEEC09091560291FFF0CFC4EE80
:10117000D0E0BDCF8091550285FFB9CFC9E2D0E064
:10118000B6CF8091550285FFB2CFC5E3D0E0AFCF97
:101190008091550286FFABCFCAE2D0E0A8CF809104
:1011A000550286FFA4CFC1E3D0E0A1CFCF3BD1054C
:1011B00018F6C85AD0E0CC0FDD1FC45BDE4F099093
:1011C000D881C02DD46493CFC11540E5D40708F071
:1011D00064C0C11580E4D80708F05CC0CE019A95C0
:1011E00081159F4108F483CFA7CFC11536E5D307FA
:1011F00018F5C11545E5D40708F084C0C11584E58C
:10120000D80708F07AC09C2F969596959E0123707A
:101210003327C115D34508F462C0C1E0D0E002C055
:10122000CC0FDD1F2A95E2F730E2939FC001112415
:10123000C82BD92BDA685BCFC1158AE5D80778F4BB
:10124000C11599E5D90708F068C0C11528E5D2078E
:1012500008F472CFDC2FCC27C06FD06A48CFCE0104
:1012600090568115904208F067CF8D2F8F710E94A4
:101270007F0790E0982F882788279F719C012C2B4F
:10128000E90149C0C55AD0E0C75BDE4FC881D0E054
:10129000D0642DCFDF70D06A2ACFCE01E4E09695DE
:1012A0008795EA95E1F783702C2F26952695237074
:1012B00040E2249F90011124382B8C2F8370C1E0D1
:1012C000D0E002C0CC0FDD1F8A95E2F7C22BD32BF2
:1012D000DC680DCFDC2FCC27C16FD06A08CFC1E00E
:1012E000D0E002C0CC0FDD1F2A95E2F720E2929FEA
:1012F000C0011124C82BD92BEBCFDC2FCC27C46F16
:10130000D06AF5CE8C2F0E947F07C82FD0E0DC2F4B
:10131000CC27CC27DF71D062EACE8C2F8F700E9451
:101320007F0734E0D695C7953A95E1F7CF709C2FAB
:10133000EC01D069DCCEC9E3D0E0D9CEC2EED0E07A
:10134000D6CEC6EED0E0D3CEBF92CF92DF92EF9250
:10135000FF920F931F93CF93DF938C01C090A30252
:10136000D090A402E090A502F090A60280915102D4
:1013700090915202A0915302B0915402C82AD92AE6
:10138000EA2AFB2ACFE1D0E0BC2ED701C6010C2E01
:1013900004C0B695A795979587950A94D2F780FDD6
:1013A0000EC0219788F7B12C8B2DDF91CF911F9123
:1013B0000F91FF90EF90DF90CF90BF900895B8010C
:1013C0008C2F0E942508019761F3EECFCF93DF9316
:1013D000EC010E94A409BE01DF91CF910C94250875
:1013E0000E94E609292F2F7092959F7092509E308F
:1013F00078F4E92FF0E0E656F84D0C948A26803F09
:1014000019F020F4883E20F481E00895843FE1F350
:1014100080E00895883EC0F3813FD1F7F5CF822F59
:1014200086958695869508956F927F928F929F926A
:10143000AF92BF92CF92DF92EF92FF920F931F93E2
:10144000CF93DF9385E4C82E83E0D82E07E510E024
:10145000E801A89736011CC0F50185909490692D8C
:10146000C7010E942327682DC70101960E942327E8
:1014700082E0A80EB11C82E0E80EF11CCE15DF055B
:1014800059F788E0680E711C28960C171D0731F07B
:101490007E0188E0E81AF1085301DECF085D1F4F96
:1014A00088E2C80ED11C073F110591F6DF91CF915C
:1014B0001F910F91FF90EF90DF90CF90BF90AF9072
:1014C0009F908F907F906F900895CF93C091560218
:1014D000C2FB992790F9981781F080FBC2F9C0935D
:1014E00056026091550284E090E00E9423276C2F01
:1014F00082E290E0CF910C942327CF910895CF936F
:10150000DF93C7ECD0E060E0CE010E942327219654
:10151000C11584E0D807B9F7DF91CF910895CF9333
:10152000DF9300D00F92CDB7DEB790919202943046
:1015300011F589837B836A839093E9008FEF909103
:10154000E800815095FD06C095ED9A95F1F70000F1
:101550008111F5CF8091E80085FF0DC050E040E09B
:1015600063E070E0CE0101960E9439038091E800AB
:101570008E778093E8000F900F900F90DF91CF91BE
:101580000895BC0184E00C948F0ABC0183E00C94A4
:101590008F0ACF93DF93EC0181E08093E9008FEF16
:1015A0009091E800815095FD06C095ED9A95F1F770
:1015B00000008111F5CF8091E80085FF14C050E054
:1015C00040E068E070E0CE010E9439038091E800BD
:1015D0008E778093E80088E0FE01A8E8B2E00190F1
:1015E0000D928A95E1F7DF91CF91089581E0809384
:1015F000E00080E28093D8001092C9008FE19EE461
:101600000197F1F700C0000087E090EBDC018093C8
:10161000EB039093EC03A093ED03B093EE0388E10A
:101620009CE00FB6F894A895809360000FBE90934D
:101630006000FFCF1F93CF93DF93182FD0E0C0E05F
:10164000893311F4C0E5D0E0812F0E945D06209718
:1016500031F4812FDF91CF911F910C9424068FE9F3
:101660009FE00197F1F700C000002197F0CF0F93A2
:101670001F93CF93DF93C62FD42F022FFC018281BB
:101680008823A1F06093A2020E947A049093A102A1
:101690008093A002C77081E001C0880FCA95EAF765
:1016A000DF91CF911F910F910C9450058091A20270
:1016B000681340C02091A0023091A1024FB7F89466
:1016C00080919C0290919D02A0919E02B0919F02F8
:1016D0004FBF821B930B883C910560F510E21D0FF4
:1016E0006D17B9F080E2860F883040F4C77081E052
:1016F00001C0880FCA95EAF70E944505183048F4E2
:1017000081E09D2F977001C0880F9A95EAF70E949B
:101710005005802F0E941A0B183098F4D77081E082
:1017200001C0880FDA95EAF7DF91CF911F910F91F1
:101730000C944505C77081E001C0880FCA95EAF78F
:10174000F3CFDF91CF911F910F91089580917B028C
:1017500080FD0AC0E0ECF1E0118210821282339623
:1017600051E0E83DF507C1F7269A35B13F7B25B139
:1017700020644FB7F89480EC91E0FC015191CF01C7
:1017800068E025B9000000C057FF35B9550F0000CB
:1017900000C000C000C035B900C06A9591F7F1E003
:1017A000883D9F0751F74FBF8FE594E00197F1F710
:1017B00000C000000895EF92FF921F93CF93DF9334
:1017C000EC0180ECE82E81E0F82E10E08C8197018E
:1017D00040917E0260917D02810F0E94D206115ECF
:1017E00083E0E80EF11C183F89F70E94A60B9A814E
:1017F0008C8190FF08C08F5F8C83DF91CF911F9108
:10180000FF90EF9008958150F7CFCF92DF92EF9243
:10181000FF920F931F93CF93DF93FC018281DD240E
:10182000DA9480FD02C0DD24D394C0ECD1E010E056
:1018300000E0198218821A8294E0E92EF12CC12C62
:101840008091BD018C0D8930CCF18770082E000C81
:10185000990B8017910791F480917E028E9DA001D3
:101860008F9D500D112455954795559547959E018F
:1018700060917D0280917C020E94D206CD0CF1E045
:10188000EF1AF108E9F60F5F1F4F23960830110594
:1018900081F60E94A60B8091BD0191E0D91214C07F
:1018A000811110C087E08093BD01DF91CF911F911E
:1018B0000F91FF90EF90DF90CF90089587FFC6CFF4
:1018C000885FC4CF8150EFCF90E001968770992751
:1018D000EACF0F931F93CF93DF93C0ECD1E0FE01CB
:1018E000118210821282339681E0E83DF807C1F739
:1018F00010E000E08091BE01082E000C990B081743
:1019000019078CF180911001082E000C990B80179B
:1019100091074CF19E0140917E0260917D02809181
:101920007C020E94D2060F5F1F4F239608301105DC
:1019300009F70E94A60B80910F019091BE01980FAC
:101940009093BE0120911001280F209310011216D0
:1019500014F497301CF0819580930F01DF91CF91A3
:101960001F910F910895198218821A82DCCF8F92ED
:101970009F92AF92BF92CF92DF92EF92FF920F931E
:101980001F93CF93DF93EC014C81042F10E098015B
:10199000D8010E9489279B01AC010E9476274B0148
:1019A0005C01E0E2F0E0E01BF10BA5E5B0E0AC018A
:1019B0009B010E9476276B017C019F01DF010E9441
:1019C00097269B01AC010E9481279B01AC01280D49
:1019D000391D4A1D5B1DC701B6010E943426F22E37
:1019E000822F90E039E23F15D8F143E0249F900127
:1019F000112435952795122F109590ECC92E91E062
:101A0000D92E00E085E5E82EEF188E2D01FD8F2DF3
:101A10009601412F60917D020E94D2060F5F53E034
:101A2000C50ED11C083089F70E94A60B9C8181E06D
:101A3000992319F0903219F48FEF8093110180915E
:101A40001101890F8C83DF91CF911F910F91FF902E
:101A5000EF90DF90CF90BF90AF909F908F900895C0
:101A600025E530E0A901481B590BCA019A01220F54
:101A7000331F280F391F37FFBCCF2F5F3F4FB9CF20
:101A8000EF92FF920F931F93CF93DF938C01C0ECE3
:101A9000D1E0F12CE12CF801948160917D028091DC
:101AA0007C02F4E0EF16F104FCF49923F9F09E01B6
:101AB00040917E020E94D2062FEFE21AF20A23968C
:101AC00088E0E816F10439F70E94A60BF80184813A
:101AD00090E00196817099278483DF91CF911F91C7
:101AE0000F91FF90EF900895992309F39E0140E034
:101AF000E1CF90917B0290FF0CC0E0ECF1E081839C
:101B000060834283339691E0E83DF907C1F70C9476
:101B1000A60B08950F931F93CF93DF9300D00F92DE
:101B2000CDB7DEB78C018091BF0181110AC09E0143
:101B30002F5F3F4F4FEF6FEF0E94D2068A81809355
:101B4000BF01F8016481613069F08091BF0140E01C
:101B5000662361F040E0623011F44091BF0180E003
:101B600060E004C06091BF0140E080E00E94790D18
:101B7000F801848190E0019663E070E00E9476268F
:101B800084830F900F900F90DF91CF911F910F9151
:101B90000895CF93DF9300D00F92CDB7DEB7909129
:101BA0007B0290FF0AC09E012F5F3F4F0E94D2062A
:101BB0004B8169818A810E94790D0F900F900F905F
:101BC000DF91CF910895CF93DF93EC01EC81F0E0AA
:101BD000EB5BFD4F4491EBE7F2E0628181810E9473
:101BE000C90D8C818F5F8C83DF91CF910895CF9346
:101BF000DF93EC01EBE7F2E0438162818C810E948C
:101C0000C90D8C818F5F8C83DF91CF9108954F92A6
:101C10005F926F927F928F929F92AF92BF92CF927C
:101C2000DF92EF92FF920F931F93CF93DF93FC010C
:101C30006280448081E08483E5E4F2E07490E4EC27
:101C4000F2E0E491C8EDD1E030ECE32E31E0F32E88
:101C500040E0C42E42E0D42E52E0A52EBB24B39423
:101C600088248A94912C55245A94E7190E2F10E059
:101C700082E0861530F080917C02888380917D021D
:101C80008983411021C01B821A8297014A81698190
:101C900088810E94D206259683E0E80EF11CCC16BE
:101CA000DD0631F7DF91CF911F910F91FF90EF90FB
:101CB000DF90CF90BF90AF909F908F907F906F906C
:101CC0005F904F900C94A60B8B818823E9F0815094
:101CD0008B83859DC00111246C8170E00E94622677
:101CE000FB01FF27EB5BFD4F8491E82FE719E59D92
:101CF000C0011124B8010E94622680917E02689F73
:101D0000B00111247A83C1CF0E94F22620917E0275
:101D1000269521582A9DA0012B9D500D1124452F59
:101D20005527841795070CF0B0CF82E0861588F40C
:101D30000E94F226B4010E94762688830E94F22631
:101D400020917D022695622F70E00E947626280F52
:101D500029831A8280917E02893C20F088EC8C8352
:101D60008B8393CF8431D8F784E1F9CF6AEE7EEF8D
:101D700090E080E00E94412760E082E090E00E94D5
:101D8000232760E083E090E00E9423271092510215
:101D900010925202109253021092540260E084E0BA
:101DA00090E00E94232760E082E290E00E942327D7
:101DB00060E085E090E00E94232760E086E090E00C
:101DC0000E9423276FEF87E090E00E94232740E0E6
:101DD00050E0BA0188E090E00E94352760E08DE095
:101DE00090E00E94232740E050E0BA0188E190E0B3
:101DF0000E94352760E087E190E00E94232740E0C1
:101E000050E0BA018CE190E00E94352770E060E07C
:101E100080E290E00E94412740E050E0BA0188E172
:101E200090E00E94352740E050E0BA018FE090E05A
:101E30000E94352740E050E0BA0183E190E00C9425
:101E40003527CF92DF92EF92FF926B017C010E94C7
:101E5000C306B701A60188E090E0FF90EF90DF9005
:101E6000CF900C9435277F928F929F92AF92BF9222
:101E7000CF92DF92EF92FF920F931F93CF93DF9356
:101E800000D00F92CDB7DEB7182FD62E042FC22E5A
:101E900090917B0290FF29C0E92FE695AE2FB0E02C
:101EA000A25EBE4F8C91809379029E7F923071F535
:101EB0009E012F5F3F4F812F0E94D2064B81698187
:101EC0008A810E94790D10937C02D0927D0200934A
:101ED0007E02CC2051F060917B0270917C02809157
:101EE0007D0290917E020E94210F0F900F900F9023
:101EF000DF91CF911F910F91FF90EF90DF90CF90E6
:101F0000BF90AF909F908F907F900895823019F48A
:101F100000917E02D8CF863019F410917C02D3CF85
:101F20008930D9F3893179F6E9512E2F2170722E3B
:101F3000E695F0E0E05CFD4F85909490992430ECBC
:101F4000E32E31E0F32EB12CA12CC50123E09695B0
:101F500087952A95E1F7711013C0810F9701402FE3
:101F60006D2D0E94D206A80CB91C83E0E80EF11C6E
:101F700028EDE21621E0F20641F70E94A60BA3CF5E
:101F8000212F281B822FEACFEBE7F2E0438121E1EA
:101F9000421B08F440E021E0628181810C94330F00
:101FA000EBE7F2E0438121E1420F08F44FEF21E03B
:101FB000628181810C94330FEBE7F2E0628121E1D1
:101FC000621B08F460E021E0438181810C94330FAF
:101FD000EBE7F2E0628121E1620F08F46FEF21E0AC
:101FE000438181810C94330FEBE7F2E0818121E0A2
:101FF0004381628188500C94330FEBE7F2E08181DA
:1020000021E043816281885F0C94330F80917F02CD
:10201000882319F0815080937F0260917B02709138
:102020007C0280917D0290917E020C94210F809120
:102030007F02833018F48F5F80937F0260917B0270
:1020400070917C0280917D0290917E020C94210F10
:10205000EBE7F2E083E0808311828FEF828383835A
:10206000148260817181828193810C94210F10927E
:102070004F02EEEAF1E086E0DF011D928A95E9F772
:102080000C9486051F93CF93DF93CDB7DEB7AA9745
:102090000FB6F894DEBF0FBECDBF84E992E0209169
:1020A000F100DC012D93CD01B2E08C399B07B9F72B
:1020B00080919502833009F471C0B8F4813009F43D
:1020C00048C0823009F4B2C08091E80083FF3AC171
:1020D00080919402909195029A3008F033C1E92FD3
:1020E000F0E0E855F84D0C948A268A3009F48DC04A
:1020F0008B3009F470C0893039F7809194028132B5
:1021000019F78091980290919902009711F0029727
:10211000D9F68091E800877F8093E8008091E800FD
:1021200082FF37C09091F3008091F200029729F46A
:102130008091F1008B7F813021F48091F1008093B8
:1021400087028091E8008B778093E8000E94630308
:10215000BBCF80919402813A09F0B6CF8091E8001C
:10216000877F8093E8008091980290919902892B53
:1021700061F468E088E892E070E00E9415048091C4
:10218000E8008B778093E8009FCF60E090E080E0EC
:10219000F3CF809192028111C1CF96CF80919402AA
:1021A000813A09F091CF8091980290919902892B00
:1021B00009F08ACF8091E800877F8093E8008091C2
:1021C000E80080FFFCCF80911D018093F100809199
:1021D000E8008E77B9CF80919402813209F074CFF4
:1021E0008091980290919902892B09F06DCF80918E
:1021F000E800877F8093E8000E9463038091960245
:1022000080931D010E9437105FCF8091940281322C
:1022100009F05ACF8091E800877F8093E8000E9400
:10222000630380919702809386024ECF809194023F
:10223000813A09F049CF8091E800877F8093E800D8
:102240008091E80080FFFCCF80918602BECF80386D
:1022500099F0823809F076C0809198028F708730AB
:1022600008F070C08093E9008091EB0085FB88271F
:1022700080F91092E90006C080919002909191023D
:10228000911182609091E800977F9093E80080938D
:10229000F1001092F1008091E8008E77B5C188239B
:1022A00009F4A2C1823009F04DC0809196028111DB
:1022B000A6C1809198028F702FEF280F263008F06A
:1022C00041C08093E9002091EB0020FF98C193303A
:1022D00031F48091EB0080628093EB0090C190918B
:1022E000EB0090619093EB0021E030E001C0220F01
:1022F0008A95EAF72093EA001092EA008091EB00B9
:102300008860EACF81111EC0109196021F778091DC
:10231000E3008078812B8093E3008091E800877F41
:102320008093E8000E9463038091E80080FFFCCF67
:102330008091E30080688093E30082E0111183E0E4
:10234000809392028091E80083FF0AC08091E800A8
:10235000877F8093E8008091EB0080628093EB00A0
:10236000AA960FB6F894DEBF0FBECDBFDF91CF9116
:102370001F9108958058823028F72091960230915D
:1023800097022C3DE3E03E07A1F583E08A838AE2D1
:1023900089834FB7F894DE01139620E03EE051E2C6
:1023A000E32FF0E050935700E49120FF03C0E29543
:1023B000EF703F5FEF708E2F90E0EA30C0F0C7966D
:1023C0008D939D932F5F243159F74FBF8091E80083
:1023D000877F8093E8006AE270E0CE0101960E9458
:1023E00015048091E8008B778093E800ABCFC0960E
:1023F000E7CF8091980290919902432F552743305F
:10240000510509F44AC078F54130510509F47AC004
:102410008BE590E0EAEAF4E04230510509F092CF12
:102420002091E800277F2093E80020919A023091C4
:102430009B028217930708F49C0140E021153105A7
:1024400009F065C0411163C08091E80082FDC9CFE9
:1024500080919202882329F2853019F28091E80058
:1024600083FFF2CFBECF4132510509F43CC0423266
:10247000510509F067CF8330910508F063CFFC0167
:10248000EE0FFF1FE256FE4F0190F081E02D8556C2
:102490009E4FDC018C9190E01AC03327213031052A
:1024A000D1F02115310561F02230310509F04ACF14
:1024B000E7E1F5E0E4918E2F90E0E7E1F5E007C079
:1024C000EBE3F5E0E4918E2F90E0EBE3F5E000978D
:1024D00009F438CFA5CFE7E2F5E0E4918E2F90E044
:1024E000E7E2F5E0F4CF8330910508F02BCF880FB9
:1024F000991FFC01EC55FE4F0190F081E02D89E021
:1025000090E08ECF82E190E0E5E0F5E089CF809128
:102510009202882309F465CF853009F462CF809157
:10252000E80083FD5ECF8091E80082FD8DCF809131
:10253000E80080FF83CF9091F3008091F200211595
:10254000310519F08830910550F041E0089709F005
:1025500040E08091E8008E778093E8006FCF44914F
:102560004093F1003196215031090196E8CF80382F
:1025700009F0E8CE8091E800877F8093E8008091A1
:1025800093028093F10087CE8111DCCE10919602E8
:10259000123008F0D7CE8091E800877F8093E80062
:1025A000109393020E946303112311F084E005C08D
:1025B0008091E30087FDFACF81E08093920242E0B0
:1025C00061EC81E00E94820342E261EC84E00E94BF
:1025D000820342E261EC82E00E94820342E260EC0C
:1025E00083E00E948203AECE80919602813009F092
:1025F000A9CE81E0933009F080E08093910210929F
:10260000E9008091E800877F8093E8000E946303DF
:1026100099CE90917B0290FF3DC09170811129C0AD
:10262000926090937B02662351F060917B027091DF
:102630007C0280917D0290917E020E94210F609128
:102640007B02669570E04BE050E084E091E00E94F0
:102650000227892BA9F010927A0281E0809363020D
:1026600020E040917E0260917D0280917C020C947A
:10267000330F8B3210F09465D4CF880F982BD1CFC5
:1026800081E080937A020E947A04909361028093A1
:102690006002E3CF089580917B028695815009F412
:1026A0008AE261E00C94091380917B0286958F5F2A
:1026B0008B3208F081E061E00C94091390917B0269
:1026C00090FF07C09695981720F0961710F40C9479
:1026D000541361E00C940913CF93DF9320911201FE
:1026E00021112DC09C01215031092E3F310520F0D0
:1026F0008F3E2FEF920718F1FB01228139E63093CC
:10270000B7019093B9018093B8012093BA0130E0EA
:1027100020E087EB91E0FC014191CF01240F311DB6
:10272000F1E08B3B9F07B9F72093BB01C7EBD1E0EA
:1027300089910E94AC2521E0CC3BD207C9F7DF91FB
:10274000CF9108956F927F928F929F92AF92BF9296
:10275000CF92DF92EF92FF920F931F93CF93DF936D
:1027600000D000D000D0CDB7DEB79AE7C92E91E0F7
:10277000D92EF12CE12C10E088248394912C3CE597
:10278000A32E32E0B32ED6018D916D01F894E82F7F
:10279000E295EF70F0E021A18F70A40102C0440F18
:1027A000551F8A95E2F7CA01922F982B91A392A107
:1027B0008095892382A3789400C0C4010E2C01C0A7
:1027C000880F0A94EAF7782F682F6095E7E5F2E022
:1027D0008EE7682E81E0782E00E03191D3012D91B3
:1027E0003D01422F42954F7050E0DA0190968C9156
:1027F00090E02F7002C0959587952A95E2F780FDAD
:1028000053C0872F832B381731F09F012150310996
:10281000D9018C9301E0AE16BF06F9F6F6013197A7
:1028200080810E946807B0EABA95F1F7102BEFEFAC
:10283000EE1AFE0AF4E0EF16F10409F0A4CF11231A
:10284000B1F181E08093B6010E947A049093B501C2
:102850008093B4012091B4013091B5014FB7F89441
:1028600080919C0290919D02A0919E02B0919F0246
:102870004FBF821B930B0697F0F080915702809315
:102880008002809158028093810280915902809346
:10289000820280915A028093830280915B0280932E
:1028A00084021092B60107C0862F8323ACCF80919B
:1028B000B6018111CFCF80911201882321F00E94AF
:1028C000D925811116C0812F26960FB6F894DEBF48
:1028D0000FBECDBFDF91CF911F910F91FF90EF9071
:1028E000DF90CF90BF90AF909F908F907F906F9030
:1028F0000895E090BC01F12C0E94C525F701E95430
:10290000FE4F80838091BC01811108C09091B70176
:102910009936A9F68F5F8093BC01D1CF8430D1F76F
:1029200030E020E087EB91E0DC014D91CD01240FF8
:10293000311DB1E08B3B9B07B9F78091B701893618
:10294000C1F48091BB01821314C08091B8019091B1
:10295000B9012091BA018F3EEFEF9E0768F031E098
:10296000211101C030E03B83BE016F5F7F4F0E94A9
:102970006C131092BC01A3CF222319F00E945D06B4
:10298000F8CF0E942406F5CF3F924F925F926F924C
:102990007F928F929F92AF92BF92CF92DF92EF92EF
:1029A000FF920F931F93CF93DF9300D000D00F922D
:1029B000CDB7DEB78C01FC0183819481892B31F086
:1029C0008081918189238F3F09F0F7C50F900F9087
:1029D0000F900F900F90DF91CF911F910F91FF906B
:1029E000EF90DF90CF90BF90AF909F908F907F90AF
:1029F0006F905F904F903F9008950E94A409F82E29
:102A0000682F89819A810E94FA0469817A818F2DC9
:102A10000E9418087C01F8018281882309F4C0C54E
:102A2000C70182519F45409708F089C58FEF93E019
:102A30000E940F27FEEEEF0E57EC852E912C882377
:102A400081F180914C02877009F4C0CFF801828136
:102A5000882309F4BBCF82E00F900F900F900F9066
:102A60000F90DF91CF911F910F91FF90EF90DF902A
:102A7000CF90BF90AF909F908F907F906F905F901E
:102A80004F903F900C94DD05811424E09206C9F22A
:102A9000C4010E940F27811101C0EA943FEF831AFD
:102AA000930AE110F1CF1C821B82442443944AE034
:102AB000342E74018FEFE81AF80AC4010E940F2720
:102AC00089831A82882309F4BCCF9FEF980F933033
:102AD00000F58A83498292E0890E911CC7010E9409
:102AE0000F278B83882309F4ACCFFE0131967F0139
:102AF000F70120812223E9F2213009F049C09181B8
:102B00008281913041F4F2E0EF0EF11C0E941A0B29
:102B100009C04701EACF923049F422E0E20EF11CED
:102B20000E945D063FEFE31AF30AE2CF933031F4DF
:102B300032E0E30EF11C0E942406F4CF943021F021
:102B40008FEFE81AF80AEECF92E0E90EF11C30E0C0
:102B500020E0B7016F5F7F4FF70141818053990BF0
:102B60008A30910550F021503109E0F28FE99FE061
:102B70000197F1F700C00000F6CF329EF001339EBE
:102B8000F00D11249C012E0F3F1F842F7B01E1CFFC
:102B9000E22FF0E0EB5EFB4F5490822F86958695F6
:102BA000869590E0FC01EB5FFB4F64902770712CE1
:102BB000022E02C0759467940A94E2F7E1E06E2257
:102BC0007724FC01EB50FC4FA490B12C022E02C0E4
:102BD000B594A7940A94E2F7F1E0AF22BB24FC017C
:102BE000EB51FC4FC490D12C02C0D594C7942A95C8
:102BF000E2F721E0C222DD246114710419F081EEB4
:102C00000E945D06A114B10419F086EE0E945D06D3
:102C1000852D0E941A0BAB2819F086EE0E9424061F
:102C2000672819F081EE0E942406CD2809F47ACF96
:102C30008CE26CCF81E00E94F9050E949E0501CFD5
:102C400081E00E94BA05F9CF82E0F5CF35EFE316B7
:102C50003CE5F30609F468C008F462C027E245EEDB
:102C600066EE96EFE9169CE5F90609F495C4F801BD
:102C70008281882309F4B2C41092A202F2E0EF1616
:102C8000FCE5FF0608F44CC126E1E2162CE5F2064D
:102C900030F0C7018A5F9C45099708F041C10E9446
:102CA000E407909356028093550230E1E3163CE529
:102CB000F30609F404C108F083C098E0E9169CE526
:102CC000F90609F4F2C008F04CC0F4E0EF16FCE598
:102CD000FF0609F4E2C078F532E0E3163CE5F306BE
:102CE00009F4D1C083E0E8168CE5F80609F4D1C0F8
:102CF00060915502F090560284E090E00E942327F4
:102D00006F2D82E290E00E9423270E94371099CE17
:102D100027E245EE65EE40C426E241EE60EE3CC49B
:102D200027E245EE64EE38C426E241EE62EE34C49A
:102D300028E241E0EFCF80915502806196E0E916EC
:102D40009CE5F90609F4A2C0809155028860E7E08D
:102D5000EE16ECE5FE0608F499C0809155028062FB
:102D600095C0809155028D7FFCE0EF16FCE5FF06D3
:102D700009F48CC078F4809155028C603AE0E31637
:102D80003CE5F30609F482C008F493C08091550233
:102D90008E7F7CC080915502877F9EE0E9169CE57E
:102DA000F90609F473C0809155028B7FEFE0EE16AF
:102DB000ECE5FE0608F46AC0809155028F7E66C07D
:102DC000FBEFEF16FCE5FF0609F46BC068F533E195
:102DD000E3163CE5F30609F47AC090F491E1E916B4
:102DE0009CE5F90609F46FC0E2E1EE16ECE5FE069B
:102DF00009F07ECF0E943710809155028F7746C030
:102E0000F5E1EF16FCE5FF0609F469C008F47DC0A2
:102E10008091560281603AEFE3163CE5F30609F033
:102E200067CF8093560264CF8FEFE8168CE5F806E3
:102E300009F451C0A0F4809156028D7FEDEFEE169B
:102E4000ECE5FE0671F3809156028E7FFEEFEF16E1
:102E5000FCE5FF0630F3809156028360E2CF21E06B
:102E6000E2162DE5F20609F459C008F444C060E00A
:102E700082E0E8168DE5F80609F03ACF8EE090E0A2
:102E80000E94232735CF809155028160809355029F
:102E90002FCF809155028260F9CF809155028460D6
:102EA000F5CF809156028260BCCF8091550280643C
:102EB000EDCF0E943710809155028068E7CF809156
:102EC00055028F7DE3CF809155028F7BDFCF8091BC
:102ED0005502837FDBCF809156028C7FA2CF8091F9
:102EE000550282FB992790F921E0922790FB82F905
:102EF00090FB83F9CBCF80915602982F90959170DB
:102F00008E7F892B90FB81F98CCF0E943710909196
:102F10005502892F97FB87F98058B8CF61E0AECF73
:102F200080914F0296E1E9169CE5F90609F06FC31E
:102F30008A7A91E009F490E09093040269E28111A9
:102F400065E38CEA91E00E9486040E94A60479CD94
:102F500085E34FC380917B0280FF1BC08E7F8093EF
:102F60007B0260917B0270917C0280917D02909146
:102F70007E020E94210F10927A02EFEFF0E722E02A
:102F8000E150F0402040E1F700C000000E94A60B95
:102F900058CD816080937B0261E086950E94091381
:102FA00050CD4BE453E164E573E10E94BE0649CD88
:102FB00044E553E16BE473E1F8CF4DEF5FE064EF7C
:102FC0007FE0F3CF4CED5FE068EE7FE0EECF44ECC6
:102FD0005FE060ED7FE0E9CF40ED5FE064EC7FE033
:102FE000E4CF47E150E166E070E1DFCF61E081E0EE
:102FF000D5CF65E082E00E945E1323CD68E086E0D5
:10300000FACF64E18FE0F7CF67E185E1F4CF62E2C8
:1030100089E1F1CF61E083E2C1CFFBE5EF16FDE589
:10302000FF0611F12CE5E2162DE5F20609F021C3A9
:103030008091560282FB882780F991E089270E94BF
:10304000650A17C30E9437103FEF84E39CE03150BC
:1030500080409040E1F700C000000E94F60A0E9404
:10306000B60EEFCC81E0EBCF80E0E9CFC7010E9444
:10307000D304D82E0DC32F2D2F70A22E8F2D807F1D
:1030800019F0A29490EFA922DD20C9F0AA2069F0DE
:1030900080E28E0D883010F081100BC080914F02BD
:1030A000A82AA0924F020E94A6048E2D0E945D06BF
:1030B00019C080914E02A82AA0924E02F4CF8E2D04
:1030C0000E942406AA2071F0A09480E28E0D883020
:1030D00010F081103FC080914F02A822A0924F02B1
:1030E0000E94A604232D2850330B2430310520F4F0
:1030F0000E94B2060E94C207CC2009F467CC8091DE
:103100004C0280FD63CCF8011282859585958595EA
:103110000E94F905C8010E94C41480914C02859553
:10312000859585950F900F900F900F900F90DF91E0
:10313000CF911F910F91FF90EF90DF90CF90BF90B4
:10314000AF909F908F907F906F905F904F903F9047
:103150000C94BA0580914E02A822A0924E02C0CFD4
:103160003F2D3F70932E8F2D807F803219F09294E7
:1031700080EF9822882071F081E0881681F1DD20AF
:10318000D9F1AA2091F1F801858180FF8ECF8F704F
:1031900085832BC0DD20B1F090915002892D892BC1
:1031A000A11003C00E9450059DCFE1E0AE12FACFFE
:1031B0002091560222FD96CF981709F493CF809361
:1031C000500290CFA11006C00E94A004892D0E9439
:1031D000450588CFF1E0AF1609F484CFF5CFDD20A7
:1031E00031F025E02A1508F47DCF892DDBCF34E0BE
:1031F0003A1508F477CFEACFAA2041F3F9E38F120A
:1032000009C02FEF37EE83E0215030408040E1F7D6
:1032100000C000008E2D0E94240664CF8F2D86955D
:103220008695837061F0813009F05CCFC70193709F
:10323000D11002C090E080E00E945A0553CFC70130
:103240009370D11002C090E080E00E9470054ACFD8
:103250008F2D837009F066C0D11044CF8E2D8295DA
:1032600086958770880F880F6E2D6F70462E512CB3
:10327000712C612C082E04C0440C551C661C771C54
:103280000A94D2F740E050E0BA01E4FE0FC04FE0EC
:1032900050E060E070E004C0440F551F661F771FC8
:1032A0008A95D2F740955095609570958F2D8695AB
:1032B00086958370823019F1D8F4809051029090F5
:1032C0005202A0905302B0905402813069F0442918
:1032D000552966297729CB01BA01682179218A21EC
:1032E0009B210E941A06FECE482859286A287B286E
:1032F000CB01BA016429752986299729F2CF44297F
:1033000055296629772940905102509052026090C9
:10331000530270905402CB01BA01642575258625AD
:103320009725DFCF8695DD2011F08F2D81708823C2
:1033300009F4D8CE8E2D829586958770880F880FD8
:103340006E2D6F70462E512C712C612C082E04C0EE
:10335000440C551C661C771C0A94D2F740E050E0E0
:10336000BA01E4FE0FC04FE050E060E070E004C03E
:10337000440F551F661F771F8A95D2F740955095C9
:10338000609570958F2D869586958370823019F1A2
:10339000D8F48090A3029090A402A090A502B090CF
:1033A000A602813069F04429552966297729CB0185
:1033B000BA01682179218A219B210E94940592CE2D
:1033C000482859286A287B28CB01BA016429752925
:1033D00086299729F2CF44295529662977294090D3
:1033E000A3025090A4026090A5027090A602CB01A7
:1033F000BA016425752586259725DFCF9F2D9F70FF
:10340000F92EDD2029F0892F0E94F9058E2DCACED4
:103410008E2D0E9445058F2D0E94BA0563CE8E2DFC
:10342000E2EF8E1609F457C0E81578F0F0EF8F162A
:1034300049F121EF821609F446C0DD2009F46FC07E
:10344000A11033CE8F2D8F7143C033EF831609F453
:1034500047C094EF8912F1CFDD2009F455C02F2D1C
:103460002F71F22E822F0E94F9058091560282FD63
:1034700007C038E0F39EC0011124836080934C02A2
:103480008F2D26C0DD20D1F0E4E0EA1508F42ACE25
:103490002F2D2F7161E070E080E090E004C0660F96
:1034A000771F881F991F2A95D2F74090A30250904A
:1034B000A4026090A5027090A6029BCFF5E0FA15D9
:1034C00008F410CEE5CF8F2D8F71DD2009F4A4CF45
:1034D0000E94F90507CE8F2D8F71DD20C9F39CCF97
:1034E00060E070E0CB01DD2009F467CF2F2D2F7154
:1034F00061E070E080E090E004C0660F771F881FF5
:10350000991F2A95D2F759CF81E00E94DD0581E00D
:103510008A1508F0E7CD82E00E94DD05E3CDAA2000
:1035200059F0893309F076CE9FEFE7EEF3E0915042
:10353000E040F040E1F76CCE8F2D8F716DCFF0E160
:10354000EF16FFE5FF0609F475CB21E1E2162FE542
:10355000F20609F479CBB801C7010E946C1383EF1E
:10356000E8168CE5F80609F4D7CB08F06FCBE8ED48
:10357000EE16ECE5FE0609F4CBCBF9EDEF16FCE513
:10358000FF0609F4D5CB27EDE2162CE5F20609F08B
:103590006ECB26E241EE61EEC8010E94370B51CAA4
:1035A00030E1E3163FE5F30609F44ACB81E1E81682
:1035B0008FE5F80681F682E044CB85E0DE011196C6
:1035C00001900D928A95E1F7F801228189819A8113
:1035D000211113CA0E94D304F82E17CAF6E1EF1680
:1035E000FCE5FF0609F045C0809104028111B0CCD2
:1035F00089E2EEEAF1E024EB31E09191891303C016
:10360000DF0111971C922E173F07B9F79ECC8272EB
:103610002CECE2162CE5F20609F4E3CC08F0A5C088
:1036200096ECE9169CE5F90609F4C7CC08F074C0DD
:10363000F3ECEF16FCE5FF0609F4B3CC08F05BC031
:1036400032ECE3163CE5F30609F484CC3AE5E316E4
:103650003DE5F30609F406CD08F0DFCCE1149CE566
:10366000F90609F4EFCCEEEDEE16ECE5FE0609F4F2
:10367000F6CCF8018281E080F180882309F4F6CC51
:10368000C7010E94A409D82E682FC7010E94FA041E
:10369000B7018D2D0E9425087C01882EF801D2806B
:1036A000A580A2943FE0A32280914C028770A1F0F4
:1036B000CD2CDD2091F08F2D807F803421F080E2B1
:1036C0008E0D883048F082E00E94DD0580914C022A
:1036D0008770CC24C3948111C12C3F2C32942FE0ED
:1036E0003222FBE0F31508F4FDCCE32DF0E0EE54BC
:1036F000F84D0C948A2694ECE9169CE5F90609F439
:1037000057CC44EF5FE06DEF7FE0E5ECEE16ECE5C3
:10371000FE0609F44ACC9ACFF9ECEF16FCE5FF0659
:1037200009F455CC88F437ECE3163CE5F30609F4CC
:1037300049CC48EE5FE06CED7FE098ECE9169CE543
:10374000F90609F432CC82CFEAECEE16ECE5FE067F
:1037500009F442CC46E050E167E170E1FBECEF1682
:10376000FCE5FF0609F421CC71CF21EDE2162CE532
:10377000F20609F446CCB8F48EECE8168CE5F806AF
:1037800009F437CC08F432CCEFECEE16ECE5FE068B
:1037900009F434CC6EE089E0F0EDEF16FCE5FF06AD
:1037A00009F429CC53CF24EDE2162CE5F20609F4F6
:1037B0002ECC78F482EDE8168CE5F80609F424CCDA
:1037C00061E088E193EDE9169CE5F90609F4E6CBA2
:1037D0003DCFE5EDEE16ECE5FE0609F41BCC6AE202
:1037E00085E2FDE5EF16FF0609F405CC2FCF1F9308
:1037F000CF93DF9380910A02807FA9F48091070222
:10380000882389F080913C02D0910B0260910502DF
:1038100070910602A0910802B0910902C62FC72339
:1038200016E0D81304C0DF91CF911F91089590E066
:10383000109711F0CF3F19F401968770F2CF189FBF
:103840009001199F300D1124F901E45FFD4F418172
:103850004713F2CF40814613EFCF42814111ECCFA5
:10386000438154814A1B5B0B483C510528F78091EA
:103870000A028F70806180930A02F901EF5EFD4FAA
:1038800080818F708061808385E092E00E94C41403
:10389000DF91CF911F910C942605AF92BF92CF92EA
:1038A000DF92EF92FF920F931F93CF93DF93CDB7E9
:1038B000DEB761970FB6F894DEBF0FBECDBF8C01A7
:1038C00085E0F801DE011D9601900D928A95E1F7E1
:1038D000F80180819181E28025E0A22E22E0B22EC3
:1038E00060910802709109026115710509F43EC1E9
:1038F0003091050240910602232F24232F3F09F423
:1039000035C1C380D480F0900702F601E61BF70BA7
:10391000FF2009F4FBC020910A02522F507FE83C9F
:10392000F10508F0BBC0511178C0FE2C491321C02D
:1039300038131FC0E1101DC02F70206120930A02B0
:10394000C5010E94C41480910A02F80185838F2D5D
:1039500061960FB6F894DEBF0FBECDBFDF91CF9159
:103960001F910F91FF90EF90DF90CF90BF90AF909D
:103970000895CD2829F0282F29232F3F09F014C1BD
:1039800020E0F22FF170DF2E20FF3DC020913C029D
:1039900040910B0256E0241315C08D879E878D85BC
:1039A0009E850E94E609292F22952F702230F8F07B
:1039B000243020F59F70F9F0F8019581907FD9F4BB
:1039C000D12C1FC030E0529FF001539FF00D112405
:1039D000E45FFD4F6181961306C06081861303C0CA
:1039E0006281E61210C02F5F3F4F2770D4CF9F70C7
:1039F00011F0882329F3805E883010F3C8010E94FB
:103A0000C414FD2CA4CFEE2009F4A1CF80910A02AA
:103A1000816080930A02F12C9ACF491312C03813A7
:103A200010C0E1100EC0F8012583C8010E94C41423
:103A300086E0F801A5E0B2E001900D928A95E1F7E9
:103A400086CF8D879E878D859E850E94F00988236D
:103A500009F1EE20F9F080910A02803270F0209195
:103A600005023091060238872F831986DB86CA86C5
:103A70008C87CE0107960E94C41486E0F801A5E069
:103A8000B2E001900D928A95E1F70E94F71BFF24A6
:103A9000F3945DCFC8010E94C414F9CF51110AC03C
:103AA00085E092E00E94C41486E0F50111928A95A7
:103AB000E9F7B1CF49130FC038130DC0E1100BC0A7
:103AC000F8012583C8010E94C41486E0F501119213
:103AD0008A95E9F73CCF8D879E878D859E850E94CC
:103AE000F0098823B9F2EE20A9F280910A0280320F
:103AF00020F220910502309106023A8329831B822D
:103B0000DD82CC828E83CE010196B5CFE83CF105F3
:103B1000E0F6FE2CEE2009F4BDCF491316C0381391
:103B200014C080910A0280FD83CF982F907F09F402
:103B30007FCFF8018583903F09F477CF982F907F4E
:103B4000905F8F70892B858370CF8D879E878D8541
:103B50009E850E94F009811190CF80910A028160B8
:103B600080930A02C8010E94C414F1CEEE2009F429
:103B700091CF8D879E878D859E850E94F009F82EB6
:103B8000882309F487CF86E0F801A5E0B2E0019030
:103B90000D928A95E1F780910502909106020E94AC
:103BA000E6090E94F71BD3CE21E02E25EACE1F9313
:103BB000CF93DF93CDB7DEB767970FB6F894DEBF2C
:103BC0000FBECDBF342F4B8B252F5C8B6D8B7E8B27
:103BD0008F8B8E899F89611110924E021A8A198AE1
:103BE0003D872E876F87998B888B86E0FE013D96F7
:103BF000DE01179601900D928A95E1F7CE010796A6
:103C00000E944D1C882389F016E080913C0290911F
:103C10000B02891349C067960FB6F894DEBF0FBE3A
:103C2000CDBFDF91CF911F91089586E0FE013796B9
:103C3000DE01119601900D928A95E1F78A859B85A8
:103C4000892B11F38F81988589238F3FE9F2209189
:103C50000B0230E0C90101968770992740913C0220
:103C60004817190671F40E94371010920B02109237
:103C70003C0286E0E5E0F2E0DF011D928A95E9F77B
:103C8000C3CF96E0929FD001939FB00D1124A45F03
:103C9000BD4FFE01319601900D929A95E1F7809308
:103CA0000B020E942605B0CF819FC0011124845FC2
:103CB0009D4F0E944D1C882309F4ADCF80913C029A
:103CC00090E001968770992780933C029ECF1F92C7
:103CD0000F920FB60F9211242F933F934F935F9340
:103CE0006F937F938F939F93AF93BF93CF93DF9304
:103CF000EF93FF93D091E900DF708091EC00C82F23
:103D0000C17080FDC0E81092E9008091F000877FCB
:103D10008093F00078940E9442101092E900809104
:103D2000F00088608093F000CD2BCF70C093E90045
:103D3000FF91EF91DF91CF91BF91AF919F918F91C3
:103D40007F916F915F914F913F912F910F900FBE97
:103D50000F901F9018951F920F920FB60F9211247B
:103D60002F933F934F935F936F937F938F939F9383
:103D7000AF93BF93EF93FF938091E10082FF09C05F
:103D80008091E20082FF05C08091E1008B7F8093EB
:103D9000E1008091DA0080FF24C08091D80080FF8C
:103DA00020C08091DA008E7F8093DA008091D90064
:103DB00080FF9BC080E189BD82E189BD09B400FE1E
:103DC000FDCF81E08093920280918502811109C02C
:103DD0000E94E9020E94B4038091E2008460809313
:103DE000E2008091E10080FF17C08091E20080FF37
:103DF00013C08091E2008E7F8093E2008091E20008
:103E000080618093E2008091D80080628093D80026
:103E100019BC85E0809392028091E10084FF29C063
:103E20008091E20084FF25C080E189BD82E189BDE7
:103E300089B5982F917080FFFBCF8091D8008F7D3E
:103E40008093D8008091E1008F7E8093E100809183
:103E5000E2008F7E8093E2008091E2008160809397
:103E6000E20080919302882309F445C084E08093A6
:103E700092028091E10083FF27C08091E20083FFDE
:103E800023C08091E100877F8093E10082E08093EE
:103E90009202109293028091E1008E7F8093E10064
:103EA0008091E2008E7F8093E2008091E200806149
:103EB0008093E20042E060E080E00E948203809113
:103EC000F00088608093F000FF91EF91BF91AF9177
:103ED0009F918F917F916F915F914F913F912F9122
:103EE0000F900FBE0F901F90189519BC1092920260
:103EF0001092850276CF8091E30087FD93E0909346
:103F00009202B7CFCDB7DEB7AB970FB6F894DEBF4E
:103F10000FBECDBF84B7877F84BF0FB6F894A89536
:103F200080916000886180936000109260000FBEF5
:103F300080E890E00FB6F894809361009093610060
:103F40000FBE85B7806885BF85B7806885BF84E769
:103F500094E09093AB018093AA010E94E9020E9431
:103F6000B4038091E20084608093E20078948091B1
:103F700092028823A1F01091E9001F709091EC004B
:103F8000892F817090FD80E8182B1092E9008091B4
:103F9000E80083FD0E9442101F701093E90082E048
:103FA00084BD93E095BD9AEF97BD80936E0084EF3A
:103FB0000E94680785EF0E94680786EF0E946807E5
:103FC00087EF0E94680781E30E94680786EC0E94E1
:103FD000680787E90E94680786E60E94680784E907
:103FE0000E946807109257021092800210925802A5
:103FF00010928102109259021092820210925A027B
:104000001092830210925B021092840290E080E092
:104010000E941D278A3E9E4F11F00E94B60E82E03C
:1040200090E00E940F27809373020E94E407909310
:104030005602809355020E94A2138FEF96E7A1E0EB
:1040400081509040A040E1F700C000000E94A21300
:104050008091800280FF17C06FEF83E290E00E94A2
:1040600023276FEF84E290E00E9423276FEF85E221
:1040700090E00E9423276FEF7FEF90E080E00E94A6
:1040800041270E94F60A83E090E00E940F27682FE4
:1040900070E090E080E00E941A0660E078E582E03F
:1040A00090E00E9486258091D80080618093D8009E
:1040B000B5E3BA95F1F700008091D9008170809343
:1040C0001201809A889883E290E00E940F27813243
:1040D00009F0AFC484E290E00E940F27873009F016
:1040E000A8C485E290E00E940F27863109F0A1C4A0
:1040F00080915C02811136C090E080E00E941D2713
:104100008A3E9E4F21F00E94B60E0E94281088E041
:1041100090E00E94172760937B0270937C0280934B
:104120007D0290937E026E7F71F40E94281088E0D9
:1041300090E00E94172760937B0270937C0280932B
:104140007D0290937E020E94C30610927A028091B3
:104150007B0280FF04C060E086950E94091381E025
:1041600080935C026BE971E0EEE68E2EE2E09E2E1B
:1041700023E931E0E7E9F1E041E050E01191812FDE
:1041800082958F7090E0DC019196FC9091971F7062
:10419000E12E6A0101C0CC0C1A95EAF70C2D0095AE
:1041A0000F2191960C93919792961C9192971C29AE
:1041B00092961C93D901FD909D010F2D02950F70D1
:1041C00010E0D8019196BC90BF2DBF70FB2E6A0104
:1041D00001C0CC0CBA95EAF7DC2CD094DB20D801D6
:1041E0009196DC9291979296DC909297DC28929629
:1041F000DC92DC0190968C9190E002C095958795B9
:10420000EA94E2F78170D80190960C9110E002C018
:1042100015950795FA94E2F790E000FD92E0892B5E
:10422000D4018D934D016E177F0709F0A7CF83E16D
:1042300091E090935E0280935D0278E1472E512CCD
:1042400080E892E0B5E0B80FBBA78091920260E4ED
:10425000F62E00E112E1853009F48DC10E94A2130F
:10426000882359F08FB7F89440919C0250919D0299
:1042700060919E0270919F028FBFA0E8B2E0E4E7D8
:10428000F2E010E000E0302F8D919191981709F441
:1042900083C1292F282790E0FF24F394422F4F2138
:1042A00009F475C199A33AA38F2191E009F490E034
:1042B0009BA30E947A048160782F9DA38CA349A1BF
:1042C0005AA16BA18DA10E94D71DF801EC58FD4F9A
:1042D0008081F826F08280917A028823D1F1809142
:1042E0007902E0917B02E695E81BE093620282305E
:1042F00009F069C1F0E0EA55FB4FE4910E2F10E0A0
:1043000053EEE52E5DE0F52E80916302882361F087
:10431000109263020E947A0490936102809360027B
:1043200010926502109264020E947A04E091600289
:10433000F09161028E1B9F0B8F3F9F4750F4E00F5F
:10434000F11FF0936102E093600280E692E0F701D2
:1043500009953AE6E32E32E0F32E06E612E043E951
:10436000A42E41E0B42E57E9852E51E0952E6EE63D
:10437000C62E62E0D62E312C212C74E0672E712CD3
:10438000D601ED916D01EE0FEE0FD4012D914D018F
:10439000A22FA295AF70B0E090968C9190E02F7014
:1043A00002C0959587952A95E2F781709927D501E6
:1043B0004D915D01A42FA295AF70B0E090962C9125
:1043C00030E04F7002C0359527954A95E2F7A90174
:1043D0004170552720FF02C042E050E0842BE82BBB
:1043E000D6011197EC93EF70F0E0ED57FE4F80810E
:1043F000F7019081890F808320E08430BCF0D801E0
:104400008C918F5F8C938BE491E0332061F0B1E06D
:104410008AE491E03B1639F0E2E089E491E03E1253
:1044200002C089E493E00E94D00721E0D7018C917B
:104430008D3FBCF4F8018081815080838EE491E04F
:10444000332061F0F1E08DE491E03F1639F022E095
:104450008CE493E0321611F08CE491E00E94D007D6
:1044600021E0D7018C91082E000C990BB3010E941A
:104470007626F70181937F01222A33940F5F1F4F25
:10448000F4E03F127DCF222059F08FB7F89440918D
:104490009C0250919D0260919E0270919F028FBF7D
:1044A0000E94B20690917202891731F00E94B20602
:1044B000809372020E94C20780919202843009F0B8
:1044C000C4CE83E08093E9008091E80082FFBDCEF6
:1044D0008091E80090E085FF06C00E9408038823D1
:1044E00009F4DDC091E08091E8008B778093E800CB
:1044F000992309F4AACEE981E150E33108F04EC1D5
:10450000F0E0E254F84D0C948A26809192028430B7
:1045100021F180E00E94C20710925F020FB6F8946A
:10452000A895409260000FBEF092600083B7817F33
:10453000846083BF83B7816083BF7894889583B795
:104540008E7F83BF0FB6F894A89580916000886134
:1045500080936000109260000FBE809191028823CA
:1045600051F00E94A213E0E8F2E0819181114BC268
:104570002BA52E13FACF80919202853009F4C5CF76
:104580000E9437100E94B2060E94C20767CE9F5F4A
:10459000FF0C943009F082CE0F5F1F4F05301105DC
:1045A00009F071CE8FEF8EA38FA318A60E947A0414
:1045B0008160782F9AA789A74EA15FA168A58AA5D7
:1045C0000E94D71D88CE863059F4F0E0ED55FB4FA0
:1045D000E4910E2F10E047EFE42E4DE0F42E94CE40
:1045E000893061F4E695F0E0E056FB4FE4910E2F40
:1045F00010E03BEDE32E3BE0F32E86CE8F3061F4EE
:10460000E695F0E0E356FB4FE4910E2F10E025E035
:10461000E22E2CE0F22E78CE853159F4F0E0E65609
:10462000FB4FE4910E2F10E099E6E92E9CE0F92E65
:104630006BCE08E210E0A7EBEA2EACE0FA2E883150
:1046400009F462CE833249F4E8E9F4E0059114916B
:104650008AE8E82E8DE0F82E57CE04EF11E0F0E462
:10466000EF2EFDE0FF2E843209F44ECE853281F428
:104670008E2F63E00E945626E92FF0E0EB56FB4FA9
:10468000E4910E2F10E0B7E0EB2EBEE0FB2E3CCE07
:1046900000ED17E0E3E7EE2EE4E0FE2E35CE00E27B
:1046A00010E0CE0101967C018091E80085FD0AC0F2
:1046B0008091E8008B778093E8000E9408038823AC
:1046C00099F310CF8091F100D7018D937D010150B6
:1046D000110951F707CF1A8289E08B832AC08A819A
:1046E000823009F4BFC18330A9F0813009F056C08F
:1046F0002FB7F89460919C0270919D0280919E0268
:1047000090919F022FBF0E9490266B837C838D83A4
:104710009E830FC0809180028B83809181028C8365
:10472000809182028D83809183028E8380918402A6
:104730008F8380919202843009F087CD1091E90037
:104740001F709091EC00892F817090FD80E8182BEC
:1047500082E08093E9008091E80080FF0DC050E086
:1047600040E060E270E0CE0101960E943903809142
:10477000E8008E778093E8001F701093E90065CD04
:104780008A81823059F46B817C818D819E810E9467
:10479000902686E290E00E942327CBCF8FEF89837B
:1047A000C8CF4C816B818A810E94F20798278927A4
:1047B00098279E838D83BDCFED80FE80FE24EF245D
:1047C000FE248A810B81B8E00B9F80011124E8E26E
:1047D0008E9F000D111D11248C8190E0880F991F70
:1047E000080F191F6F2DC80187960E9423276E2D71
:1047F000C8018896D0CF0E94140A9BCF8A81813845
:10480000C1F060F4803809F094CF20E04B816091D2
:104810007D0280917C020E94330F8BCF823859F148
:10482000833809F086CF20E040917E026C818B8135
:10483000F2CF60E08B810E9409139B8180917B0203
:10484000911111C08E7F80937B0210927A02FFEF4C
:1048500020E782E0F15020408040E1F700C00000F6
:104860000E94A60B66CF816080937B0260E08695F4
:104870000E9409135ECF8B8180937F025ACF8A8179
:10488000813899F030F4803809F053CF80917E025E
:1048900024CF823891F0833809F04BCF80917C028D
:1048A0008B8380917D028C8344CF80917B0280FF3B
:1048B00002C0869512CF80E010CF80917F020DCF8D
:1048C00060917B0270917C0280917D0290917E02CA
:1048D0000E94210F2ECF80E18A832BCF83E08A8331
:1048E00089E3FBCEEA80FB80FE24EF24FE248E01C8
:1048F0000F5F1F4FCC80C00ED12ED11CC701895332
:104900009F4F0C151D0509F414CFA9E3EA16A3E087
:10491000FA0650F40E940F27F8018483BFEFEB1AC8
:10492000FB0A0F5F1F4FEACFD80114961C92F6CFF7
:104930000A811B81102701271027FE0131966F0184
:10494000EC80E00EF12EF11CC80189539F4FE01658
:10495000F10609F4EECE0933F3E01F0728F4D6017F
:1049600014966C910E942327BFEFCB1ADB0A0F5FCE
:104970001F4FEACF0E947F0ADCCE84E0ADCFEA80F1
:10498000FB80FE24EF24FE248E010F5F1F4FCC809E
:10499000C00ED12ED11CC7018796C016D10609F4CE
:1049A000C8CEE0EAEE16F10458F40E940F27D801B1
:1049B00014968C93FFEFEF1AFF0A0F5F1F4FEBCF98
:1049C000F8011482F7CF0A811B81102701271027D5
:1049D000CE0101966C01EC80E00EF12EF11CC801B5
:1049E0008796E016F10609F4A4CE003A110528F4E2
:1049F000D60114966C910E942327BFEFCB1ADB0AD5
:104A00000F5F1F4FECCF09BD19BD09B400FEFDCFEC
:104A10008091D8008F7D8093D8008091E0008260E3
:104A20008093E0008091E00081FDFCCF0E94371070
:104A3000A2CD60E086E290E00E9423270E94140A43
:104A40000E947F0A61E283E290E00E94232767E0F0
:104A500084E290E00E94232766E185E290E00E94D4
:104A6000232746CB86E290E00E940F271B821C8200
:104A70001D828E835ECE78941F921FB61F921124E2
:104A80008F939F93AF93BF9380919C0290919D02CF
:104A9000A0919E02B0919F020196A11DB11D80932D
:104AA0009C0290939D02A0939E02B0939F02BF919F
:104AB000AF919F918F911F901FBE1F9018951F92CD
:104AC0001FB61F9211248F939F93AF93BF93809132
:104AD0005F02811113C080919C0290919D02A09170
:104AE0009E02B0919F024196A11DB11D80939C0230
:104AF00090939D02A0939E02B0939F02BF91AF91AD
:104B00009F918F911F901FBE1F9018959B01AC0124
:104B1000F89460E079E08DE390E00E943426215023
:104B200031094109510956954795379527952093A5
:104B3000CC0082E08093C80088E98093C90086E0B9
:104B40008093CA001092E9021092EA021092A70222
:104B50001092A802789408959091EA029F5F2091A4
:104B6000E902291303C00FB607FE0EC02091E90227
:104B70002917E1F3E92FF0E0E551FD4F8083909391
:104B8000EA0288EB8093C90008959091A802809171
:104B9000A7029817D1F39091A7029F5F903408F075
:104BA00090E0E92FF0E0E755FD4F80819093A70258
:104BB00008955091A8024091A702852F90E0242FDC
:104BC00030E0541748F0AC01421B530B81E014163F
:104BD00015060CF080E00895805C9F4FF4CF8F9312
:104BE0008FB78F939F93EF93FF939091EA028091F9
:104BF000E90298130AC088E98093C900FF91EF91F8
:104C00009F918F918FBF8F9118958091E9028F5F4F
:104C1000E82FF0E0E551FD4F90819093CE00809316
:104C2000E902ECCF2F932FB72F938F939F93EF939E
:104C3000FF939091CE008091A8028F5F803408F09E
:104C400080E02091A702281739F0E82FF0E0E7551F
:104C5000FD4F90838093A802FF91EF919F918F91D8
:104C60002F912FBF2F911895A1E21A2EAA1BBB1BC3
:104C7000FD010DC0AA1FBB1FEE1FFF1FA217B30728
:104C8000E407F50720F0A21BB30BE40BF50B661F3E
:104C9000771F881F991F1A9469F760957095809502
:104CA00090959B01AC01BD01CF010895991B79E05E
:104CB00004C0991F961708F0961B881F7A95C9F7AC
:104CC00080950895AA1BBB1B51E107C0AA1FBB1FFB
:104CD000A617B70710F0A61BB70B881F991F5A9588
:104CE000A9F780959095BC01CD01089597FB072EFB
:104CF00016F4009407D077FD09D00E94622607FCC5
:104D000005D03EF4909581959F4F089570956195DB
:104D10007F4F0895EE0FFF1F0590F491E02D099449
:104D200069279627692778278727782708950E947B
:104D30008927332312F48A1B9B0B0C94A1260E9413
:104D40008927B7FF0895821B930B08958F929F9236
:104D5000AF92BF92CF92DF92EF92FF92CF93DF9309
:104D6000EC01688179818A819B81611571058105DA
:104D7000910521F464E279ED8BE597E02DE133EFC5
:104D800041E050E00E94572749015A019B01AC01C4
:104D9000A7EAB1E40E9476276B017C01ACEEB4EF88
:104DA000A50194010E948427DC01CB018C0D9D1D7F
:104DB000AE1DBF1DB7FF03C00197A109B04888838E
:104DC0009983AA83BB839F77DF91CF91FF90EF9068
:104DD000DF90CF90BF90AF909F908F9008950E94EA
:104DE000A626089580E091E00E94A6260895B0E0EE
:104DF000A0E08093000190930101A0930201B09381
:104E000003010895FC014150504030F00190061616
:104E1000D1F73197CF010895882799270895F999F7
:104E2000FECF92BD81BDF89A992780B50895A6E17D
:104E3000B0E044E050E00C944927A8E1B0E042E043
:104E400050E00C944927262FF999FECF92BD81BDE1
:104E5000F89A019700B4021639F01FBA20BD0FB6B8
:104E6000F894FA9AF99A0FBE08950396272F0E9494
:104E700024270E942327252F0E942427242F0C94C7
:104E800024270196272F0E9424270C942327DC0136
:104E9000CB01FC01F999FECF06C0F2BDE1BDF89A45
:104EA000319600B40D9241505040B8F70895052E48
:104EB00097FB1EF400940E946E2757FD07D00E94B6
:104EC000342607FC03D04EF40C946E275095409581
:104ED000309521953F4F4F4F5F4F089590958095A6
:104EE000709561957F4F8F4F9F4F08950E9489273E
:104EF000A59F900DB49F900DA49F800D911D11242E
:104F00000895B7FF0C9476270E947627821B930B97
:104F10000895A29FB001B39FC001A39F700D811D92
:104F20001124911DB29F700D811D1124911D0895B2
:104F3000F894FFCFFF09FF09080A080A0A0A080ABD
:104F4000080A080AFF09FF090F0A080A080A0F0AD7
:104F500027114F11A2114F11A2118211BA11A211E2
:104F6000B712C4123B183B18B018B0180E197218BB
:104F7000721872182819FE190F1A0F1A6B236F2353
:104F8000C023D123DC23FB23FE233F246024CE2334
:104F9000CE236B246E2472249824BA24BD24BF240B
:024FA000E32408
:104FA2000100000001191A1B1C1D1E1F20212201D5
:104FB2000201017704C90A7604C50AC10A01000187
:104FC200020202020606060909090909090F0F0F62
:104FD2000F0F0F151515181919191919191919196A
:104FE200192324252525252525818283E200E90030
:104FF200EA00B500B600B700CD008301CC008A01FB
:105002009201940121022302240225022602270290
:105012002A02B300B4006F007000F4F5F6F731C64F
:1050220097669400FF0100010000FFFF00000100ED
:1050320001FF0033359192323490934022320001C5
:0A504200DE00AC00BC04D504F50448
:00000001FF
